:020000040800F2
:10000000180F00201501000855030008010300081F
:1000100051030008DD010008CD04000800000000C5
:10002000000000000000000000000000790300084C
:10003000E1010008000000006901000865040008F3
:100040002F0100082F0100082F0100082F010008D0
:100050002F0100082F0100082F0100082F010008C0
:100060002F0100082F0100082F0100082F010008B0
:100070002F0100082F0100082F0100082F010008A0
:100080002F0100082F0100082F0100082F01000890
:100090002F0100082F0100082F0100082F01000880
:1000A0002F0100082F0100082F0100082F01000870
:1000B0002F0100082F0100082F0100082F01000860
:1000C0002F0100082F0100082F0100082F01000850
:1000D0002F0100082F0100082F0100082F01000840
:1000E0002F0100082F0100082F010008DFF810D0B1
:1000F00000F062F8004800473D050008AFF30080BB
:10010000180F0020B0FA80F0704790FAA0F0B0FA13
:1001100080F070470648804706480047FEE7FEE744
:10012000FEE7FEE7FEE7FEE7FEE7FEE7FEE7FEE7A7
:100130006D040008ED00000872B6704762B67047A3
:10014000EFF3108072B6704780F310887047144840
:100150004FF0FF010170002080F3098811484FF033
:100160008051016062B6FEE772B6EFF3098020B1FC
:1001700020E9F00F0C49096808600C480C490A682E
:10018000027009480B490A6802601068B0E8F00F75
:1001900080F309884EF0040E62B6704700BF00007D
:1001A00022ED00E004ED00E018000020280000200F
:1001B000290000201C000020064C074D06E0E068E6
:1001C00040F0010394E8070098471034AC42F6D39E
:1001D000FFF790FF200E0008400E000800BFFEE76A
:1001E00070472DE9F041024600250026002000233B
:1001F0000024002791F803C00CF00F0591F803C00C
:100200000CF0100CBCF1000F03D091F802C04CEAC6
:10021000050591F800C0BCF1000F31D01468002032
:100220002BE04FF0010C0CFA00F3B1F800C00CEA1F
:1002300003069E4220D183004FF00F0C0CFA03F707
:10024000BC4305FA03FC4CEA040491F803C0BCF17A
:10025000280F06D14FF0010C0CFA00FCC2F814C0B4
:100260000AE091F803C0BCF1480F05D14FF0010C32
:100270000CFA00FCC2F810C0401C0828D1D314604E
:10028000B1F800C0BCF1FF0F34DD546800202EE04F
:1002900000F1080C4FF0010808FA0CF3B1F800C0A7
:1002A0000CEA03069E4221D183004FF00F0C0CFA9A
:1002B00003F7BC4305FA03FC4CEA040491F803C0BD
:1002C000BCF1280F05D100F1080C08FA0CF8C2F8AF
:1002D000148091F803C0BCF1480F07D100F1080C5D
:1002E0004FF0010808FA0CF8C2F81080401C0828EA
:1002F000CED35460BDE8F081416170470161704721
:1003000000BFFEE708B50121042000F025F8102009
:100310008DF803000720ADF8000003208DF80200DF
:1003200069460248FFF75DFF08BD00000008014074
:1003300070B504460D4625B121460448FFF7DEFF9F
:1003400003E021460148FFF7D7FF70BD00080140D8
:1003500000BFFEE77047000029B1064A92690243D8
:10036000044B9A6104E0034A92698243014B9A610B
:100370007047000000100240704710B500F002F80E
:1003800010BD00000CB500200190009033480068BB
:1003900040F480303149086000BF3048006800F404
:1003A000003000900198401C0190009818B9019805
:1003B000B0F5A06FF1D12948006800F4003010B109
:1003C0000120009001E0002000900098012843D116
:1003D0002348006840F01000214908600846006882
:1003E00020F0030008600846006840F00200086042
:1003F0001A484068194948600846406848600846FD
:10040000406840F4806048600846406820F47C10F2
:1004100048600846406840F4E810486008460068B4
:1004200040F08070086000BF0C48006800F0007069
:100430000028F9D00948406820F0030007494860C7
:100440000846406840F00200486000BF034840682A
:1004500000F00C000828F9D10CBD0000001002408B
:100460000020024010B500F085FC10BD10B5134807
:10047000006840F0010011490860084640681049D2
:1004800008400E494860084600680E4908400B497C
:1004900008600846006820F480200860084640682C
:1004A00020F4FE0048604FF41F008860FFF765FFEE
:1004B0004FF000600449086010BD000000100240C9
:1004C0000000FFF8FFFFF6FE08ED00E000BFFEE7CA
:1004D00002E008C8121F08C1002AFAD1704770470D
:1004E000002001E001C1121F002AFBD1704700006B
:1004F00000BF03480068401C01490860F9E700009C
:100500002400002000210AE001EB4102054B03EB2F
:10051000820000220260426002814A1CD1B220297E
:10052000F2D37047600900200021016041608160C2
:100530002021017300214161016170470EB5FFF771
:10054000E1FEFFF7F9FD0A2000F0EAF900F054F8A7
:1005500000208021124A0123CDE9002102900246A9
:100560001049114800F006FA012080210F4A0223A9
:10057000CDE90021029000220D490E4800F0FAF961
:10058000012080210C4A0223CDE9002102900022A3
:100590000A490B4800F0EEF900F094F900BFFEE7BD
:1005A000300000209D0D00083006002030020020A1
:1005B000C50D00086806002030040020F50D000875
:1005C000A00600200EB50020074908608021074AD8
:1005D00012681F23CDE90021029002460449054814
:1005E00000F0C8F90EBD000024000020180E00081D
:1005F000F1040008E00A002010B500200B49087043
:100600000B4908600B4908600B4908700B490870DA
:100610000B49087000F02CF8FFF774FF002009491F
:10062000086000F0D9FAFFF7CDFF10BD20000020D0
:10063000180000201C0000202800002029000020B5
:100640002A0000202C00002070B5084C002503E093
:1006500005F12000C5B2241D20680028F8D02068CC
:10066000FFF750FD2844C5B2284670BD1400002095
:10067000002004E00021034A42F82010401C00281A
:10068000F8D070471400002030B5410900F01F0376
:100690000122C3F11F04A240034C54F8214014432B
:1006A000014D45F8214030BD1400002030B541090E
:1006B00000F01F030122C3F11F04A240034C54F8B1
:1006C00021409443014D45F8214030BD14000020E5
:1006D00010B50446207BFFF7D7FF207B054909783A
:1006E000884203D1204600F025F802E0204600F0C1
:1006F00003F810BD28000020027B02EB42020C4BE5
:1007000003EB82010A893AB901220A81002242617F
:1007100002610860486009E00A89521C0A810A687F
:100720000261002242610A6850610860704700005F
:1007300060090020027B02EB42020C4B03EB8201BA
:100740000A893AB901220A810022426102610860E5
:10075000486009E00A89521C0A81002202614A6845
:1007600042614A68106148607047000060090020DB
:1007700010B501460B8923B1012B03D0022B0CD1FC
:1007800001E000BF15E008684A6842610023036188
:10079000106153610A6048600BE008684A680369A9
:1007A00000245C6142610461106154610B60486027
:1007B00000BF00BF10BD00002DE9F0410546287BB9
:1007C00000EB4000114901EB80046F692E697FB98D
:1007D0003EB90020208120606060287BFFF766FF23
:1007E0000EE02089401E208100207061266007E015
:1007F0002089401E20813E610EB9676000E077616C
:10080000002068612861BDE8F081000060090020D7
:1008100010B5FFF795FC0446FFF716FF0E49087068
:100820000846007800EB40000C4951F820000C49C4
:100830000860084600680B490968884203D12046D1
:10084000FFF782FC10BD2046FFF77EFC4FF0805082
:100850000549086000BFF5E7290000206009002075
:100860001C0000201800002004ED00E070B50546D3
:10087000FFF766FC06462C6814B93046FFF764FCA7
:100880000F48844202D13046FFF75EFC206B10B166
:10089000206B401E2063206B10B13046FFF754FCE4
:1008A0002889012802DC3046FFF74EFC2846FFF776
:1008B0005FFF2C68E06A20633046FFF745FC70BD9F
:1008C000E00A002010B510480078D0B9FFF7BCFE50
:1008D0000E490870084600780D4908700B480078EA
:1008E00000EB40000B4951F820000B490860084616
:1008F00000680A490860012003490870FFF727FCD7
:1009000010BD00BFFCE700002000002029000020EF
:1009100028000020600900201C0000201800002092
:1009200030B502464FF0FF300F21002807DA0B07E1
:100930001D0E0D4B00F00F04241F1D5503E00B0787
:100940001C0E0A4B1C5400BF0948006850434FF46A
:100950007A71B0FBF1F0401E4FF0E02148610020B9
:1009600088610720086130BD18ED00E000E400E078
:10097000000000202DE9F84F04460D4616461F469C
:10098000DDE90AA8DDF830902046FFF7CDFD4346AB
:1009900052463146284600F07AF883462773C4F859
:1009A00000B0C4F80480C4F82C90C4F83090FFF76D
:1009B000C7FB0090207BFFF767FE2046FFF7BAFEDB
:1009C0000098FFF7C1FBBDE8F88F10B5044620463C
:1009D00000F062F92046FFF77BFE10BD70B50446BB
:1009E000FFF7AEFB054694F83400082847D2DFE84D
:1009F00000F0040506070B1C2A3800BF00BF00BF2B
:100A00002846FFF7A1FB3EE014F8350F401E20708A
:100A100014F8350928B9002084F834002046FFF77F
:100A2000D4FF2846FFF790FB2DE014F8350F401E49
:100A3000207014F8350910B9012084F834002846D4
:100A4000FFF782FB1FE014F8350F401E207014F8EA
:100A5000350910B9022084F834002846FFF774FBEA
:100A600011E014F8350F401E207014F8350910B944
:100A7000032084F834002846FFF766FB03E028468D
:100A8000FFF762FB00BF00BFFFF7C2FE70BD70B58D
:100A9000044602EB83004FF08076051F28462E6047
:100AA000051F28462C604FF01436051F28462E607F
:100AB0004FF01236051F28462E604FF00336051FF3
:100AC00028462E604FF00236051F28462E6076100D
:100AD000051F28462E60051F284629604FF0113655
:100AE000051F28462E604FF01036051F28462E6041
:100AF0004FF00936051F28462E604FF00836051FB7
:100B000028462E604FF00736051F28462E604FF00E
:100B10000636051F28462E604FF00536051F28466D
:100B20002E604FF00436051F28462E6070BD000071
:100B300070B50446FFF704FB05460CB92548046868
:100B400094F8340008283CD2DFE800F004111B259B
:100B50002F303132042084F83400012084F835002D
:100B60002046FFF729FE2846FFF7EEFA2DE0052084
:100B700084F83400012084F835002846FFF7E4FAB1
:100B800023E0062084F83400012084F8350028464C
:100B9000FFF7DAFA19E0072084F83400012084F81E
:100BA00035002846FFF7D0FA0FE000BF00BF00BFB6
:100BB00094F83500401C84F835002846FFF7C4FA45
:100BC00003E02846FFF7C0FA00BF00BFFFF720FE92
:100BD00070BD000018000020002108E0054A02EB6B
:100BE000C100002202608280C2804A1CD1B2112959
:100BF000F4D37047D808002070B50B462449096823
:100C00001944416283621125416AB1FBF5F605FB87
:100C10001614204901EBC402918831B90021816189
:100C2000C1611060012191802AE0116822E0184E14
:100C30004D6A3668AD1B8D62856A8E6AB54209D9E8
:100C40008D690DB1896915E000258561C1618861F3
:100C500000210FE0CD6935B910600025C5618161C3
:100C6000C861002106E08161CD69C561CD69A861D7
:100C7000C86100210029DAD195886D1C958000BFDC
:100C80009188D588A94201DD9188D180026270BD2A
:100C90002C000020D808002010B5016A01B910BD51
:100CA000002282620A68824208D10A6892690A6058
:100CB0000A684AB100220B68DA6105E0C3698269FB
:100CC0009A6102B1D36100BF0022C26182610262F7
:100CD00042628A88521E8A8000BFE0E72DE9F04117
:100CE000FFF72EFA054616480068401C14490860B4
:100CF000084600681121B0FBF1F201FB1206114811
:100D000000EBC6073C6812E0D4F818800C49606A12
:100D10000968401AA0620A49606A0968884203D1DA
:100D20002046FFF752FE00E003E0444600BF002CDF
:100D3000EAD100BF2846FFF707FABDE8F0810000BE
:100D40002C000020D808002070B50446FFF7F8F901
:100D50000546214606480068FFF74EFF0448006834
:100D6000FFF72AFD2846FFF7EFF9FFF751FD70BDA9
:100D70001800002010B5FFF7B1FF0649097801EB14
:100D80004101054A02EB8100FFF770FDFFF740FDCE
:100D900010BD0000280000206009002000BF0124D1
:100DA00021460120FFF7C4FA0548FFF7C1FE0024E1
:100DB00021460120FFF7BCFA0148FFF7B9FEEEE734
:100DC0003006002000BF012421460220FFF7B0FAC0
:100DD0000120FFF7B9FF002421460220FFF7A8FAFF
:100DE0000120FFF7B1FF0248FFF7F8FDEBE7000035
:100DF0003006002000BF012421460420FFF798FAA6
:100E00000120FFF7A1FF002421460420FFF790FAFC
:100E10000120FFF799FFEEE7D806002080000000D0
:100E2000400E00080000002030000000D004000840
:100E3000700E000830000020E80E0000E0040008FA
:100E400000A24A04000000000000000001020304A8
:100E50000607080900000000000000000000000074
:100E60000000000000000000000000000000000082
:04000005080000ED02
:00000001FF
